{
  "transactions": [
    {
      "hash": "0x33c2c2c66cd95259a4fff63261b6b7468bf3516122b75a8f2ec87be0499bdb5e",
      "transactionType": "CALL",
      "contractName": "LuckyBuy",
      "contractAddress": "0x291b55444c1d4b1d945ebbb2d1547171d8324d78",
      "function": "addCosigner(address)",
      "arguments": [
        "0x993f64E049F95d246dc7B0D196CB5dC419d4e1f1"
      ],
      "transaction": {
        "from": "0x6ae493db8577b7387a335a81a1b562415d0ccb4b",
        "to": "0x291b55444c1d4b1d945ebbb2d1547171d8324d78",
        "gas": "0x11024",
        "value": "0x0",
        "input": "0x6dbf1655000000000000000000000000993f64e049f95d246dc7b0d196cb5dc419d4e1f1",
        "nonce": "0x11",
        "chainId": "0x1"
      },
      "additionalContracts": [],
      "isFixedGasLimit": false
    }
  ],
  "receipts": [
    {
      "status": "0x1",
      "cumulativeGasUsed": "0x65813f",
      "logs": [
        {
          "address": "0x291b55444c1d4b1d945ebbb2d1547171d8324d78",
          "topics": [
            "0x758f46d6402b2cfe183c96029286524f6abcfbe17b1cc7db2834ecc3f23640d5",
            "0x000000000000000000000000993f64e049f95d246dc7b0d196cb5dc419d4e1f1"
          ],
          "data": "0x",
          "blockHash": "0x340b1c0ca1a922ab5faa8cf6ddeb40358bda2cac8202a33c4f0683985dabc917",
          "blockNumber": "0x1555997",
          "transactionHash": "0x33c2c2c66cd95259a4fff63261b6b7468bf3516122b75a8f2ec87be0499bdb5e",
          "transactionIndex": "0x58",
          "logIndex": "0x9d",
          "removed": false
        }
      ],
      "logsBloom": "0x00000000000000000000000000000020000000000000000002000000000000000000000000000000000000000000000000000000000000000000000000000000000000000000000000000000000000000000000000000000000000000000000000000000000000000000000000000010000000000000000000000004000000000000000000002000000000000000000000000000000000000000000000000000000008000000000000000000000000000000000000000000000000000000000000000000000000000000000000000000000000000000000000000000000000200000000000000000000000000000000080000000000000000000000000000000",
      "type": "0x2",
      "transactionHash": "0x33c2c2c66cd95259a4fff63261b6b7468bf3516122b75a8f2ec87be0499bdb5e",
      "transactionIndex": "0x58",
      "blockHash": "0x340b1c0ca1a922ab5faa8cf6ddeb40358bda2cac8202a33c4f0683985dabc917",
      "blockNumber": "0x1555997",
      "gasUsed": "0xc507",
      "effectiveGasPrice": "0x18ebf83b",
      "from": "0x6ae493db8577b7387a335a81a1b562415d0ccb4b",
      "to": "0x291b55444c1d4b1d945ebbb2d1547171d8324d78",
      "contractAddress": null
    }
  ],
  "libraries": [],
  "pending": [],
  "returns": {},
  "timestamp": 1745881357,
  "chain": 1,
  "commit": "13b6176"
}