{
  "transactions": [
    {
      "hash": "0xbee54d3902fda3c7a0b2d0b51914a1b28f3a60929c355611d8cff767e57d8b04",
      "transactionType": "CALL",
      "contractName": "LuckyBuy",
      "contractAddress": "0x291b55444c1d4b1d945ebbb2d1547171d8324d78",
      "function": "setOpenEditionToken(address,uint256,uint32)",
      "arguments": [
        "0x4CB756f71A63785a40d2d2D5a7AE56caAb9f9BCa",
        "0",
        "1"
      ],
      "transaction": {
        "from": "0x6ae493db8577b7387a335a81a1b562415d0ccb4b",
        "to": "0x291b55444c1d4b1d945ebbb2d1547171d8324d78",
        "gas": "0x1bad3",
        "value": "0x0",
        "input": "0xd47333ee0000000000000000000000004cb756f71a63785a40d2d2d5a7ae56caab9f9bca00000000000000000000000000000000000000000000000000000000000000000000000000000000000000000000000000000000000000000000000000000001",
        "nonce": "0x13",
        "chainId": "0x1"
      },
      "additionalContracts": [],
      "isFixedGasLimit": false
    }
  ],
  "receipts": [
    {
      "status": "0x1",
      "cumulativeGasUsed": "0x6c9636",
      "logs": [
        {
          "address": "0x291b55444c1d4b1d945ebbb2d1547171d8324d78",
          "topics": [
            "0x9853225bc90f5a4f2ade273d80b42a308ee708d7c1edcc02fc3091e65ffdc586",
            "0x0000000000000000000000004cb756f71a63785a40d2d2d5a7ae56caab9f9bca",
            "0x0000000000000000000000000000000000000000000000000000000000000000"
          ],
          "data": "0x0000000000000000000000000000000000000000000000000000000000000001",
          "blockHash": "0x3decaa5187387365221aa3eba62965cdc0ff09b218fe4304ca409ae9476bdf0b",
          "blockNumber": "0x1555aa3",
          "transactionHash": "0xbee54d3902fda3c7a0b2d0b51914a1b28f3a60929c355611d8cff767e57d8b04",
          "transactionIndex": "0x72",
          "logIndex": "0x9a",
          "removed": false
        }
      ],
      "logsBloom": "0x00000000000000000400000000000000000000000000000000000000000000000000000000000020000000000000000000000000000000000000000000000008000000000000000000000000004000000000000000000000000000000000000000000000020000000000000000000800000000000000000000000004000000000000000000000000000000000000000000000000000000000000000000000000000000002000000000000000000000000000000000000000000000000000000000000000000000000000000000000000000800000000000000000000000020200000000000000000000000000000000080000000000000000000000000000000",
      "type": "0x2",
      "transactionHash": "0xbee54d3902fda3c7a0b2d0b51914a1b28f3a60929c355611d8cff767e57d8b04",
      "transactionIndex": "0x72",
      "blockHash": "0x3decaa5187387365221aa3eba62965cdc0ff09b218fe4304ca409ae9476bdf0b",
      "blockNumber": "0x1555aa3",
      "gasUsed": "0x12eca",
      "effectiveGasPrice": "0x1b001054",
      "from": "0x6ae493db8577b7387a335a81a1b562415d0ccb4b",
      "to": "0x291b55444c1d4b1d945ebbb2d1547171d8324d78",
      "contractAddress": null
    }
  ],
  "libraries": [],
  "pending": [],
  "returns": {},
  "timestamp": 1745884573,
  "chain": 1,
  "commit": "13b6176"
}