{
  "transactions": [
    {
      "hash": "0x5491ae89f4369db070696d2ce8f436c58db9469ab5a3fe39dc970044dc78339c",
      "transactionType": "CALL",
      "contractName": "LuckyBuy",
      "contractAddress": "0x291b55444c1d4b1d945ebbb2d1547171d8324d78",
      "function": "setFeeReceiver(address)",
      "arguments": [
        "0x2918F39540df38D4c33cda3bCA9edFccd8471cBE"
      ],
      "transaction": {
        "from": "0x6ae493db8577b7387a335a81a1b562415d0ccb4b",
        "to": "0x291b55444c1d4b1d945ebbb2d1547171d8324d78",
        "gas": "0xbb7e",
        "value": "0x0",
        "input": "0xefdcd9740000000000000000000000002918f39540df38d4c33cda3bca9edfccd8471cbe",
        "nonce": "0x12",
        "chainId": "0x1"
      },
      "additionalContracts": [],
      "isFixedGasLimit": false
    }
  ],
  "receipts": [
    {
      "status": "0x1",
      "cumulativeGasUsed": "0x1a63e13",
      "logs": [
        {
          "address": "0x291b55444c1d4b1d945ebbb2d1547171d8324d78",
          "topics": [
            "0xa92ff4390fe6943f0b30e8fe715dde86f85ab79b2b2c640a10fc094cc4036cc8",
            "0x00000000000000000000000085d31445af0b0ff26851bf3c5e27e90058df3270",
            "0x0000000000000000000000002918f39540df38d4c33cda3bca9edfccd8471cbe"
          ],
          "data": "0x",
          "blockHash": "0x9da8f4c38fb87ed35c0afc40268046fff3858ae3af9671c45ae465f34e279f57",
          "blockNumber": "0x15559ad",
          "transactionHash": "0x5491ae89f4369db070696d2ce8f436c58db9469ab5a3fe39dc970044dc78339c",
          "transactionIndex": "0x73",
          "logIndex": "0x1ae",
          "removed": false
        }
      ],
      "logsBloom": "0x00000000000000000000000000000000000000000040000000000000000000000000000000000000008000000000000000000000000000000000000010000000000000000000000010000000000000000000000000000000000000000000000000000000000000000000000000000000000000000000000000000004000000000000000000000000000000000000000000000000000000000000000000000000000000000000000000000000000000400000000000000000000000000000000000000009000000000000000000000000000000000000080000000000000000200000000000000000000000000000000880000000000000000000000000000000",
      "type": "0x2",
      "transactionHash": "0x5491ae89f4369db070696d2ce8f436c58db9469ab5a3fe39dc970044dc78339c",
      "transactionIndex": "0x73",
      "blockHash": "0x9da8f4c38fb87ed35c0afc40268046fff3858ae3af9671c45ae465f34e279f57",
      "blockNumber": "0x15559ad",
      "gasUsed": "0x87bf",
      "effectiveGasPrice": "0x156cd91c",
      "from": "0x6ae493db8577b7387a335a81a1b562415d0ccb4b",
      "to": "0x291b55444c1d4b1d945ebbb2d1547171d8324d78",
      "contractAddress": null
    }
  ],
  "libraries": [],
  "pending": [],
  "returns": {},
  "timestamp": 1745881622,
  "chain": 1,
  "commit": "13b6176"
}