{
  "transactions": [
    {
      "hash": "0x0a93d750eafb377949e544a97ba98e368e270578fc80ad485da6da15c30a1758",
      "transactionType": "CALL",
      "contractName": "LuckyBuy",
      "contractAddress": "0x291b55444c1d4b1d945ebbb2d1547171d8324d78",
      "function": "setFlatFee(uint256)",
      "arguments": [
        "825000000000000"
      ],
      "transaction": {
        "from": "0x6ae493db8577b7387a335a81a1b562415d0ccb4b",
        "to": "0x291b55444c1d4b1d945ebbb2d1547171d8324d78",
        "gas": "0x1083c",
        "value": "0x0",
        "input": "0x23fa495a0000000000000000000000000000000000000000000000000002ee5547f09000",
        "nonce": "0x16",
        "chainId": "0x1"
      },
      "additionalContracts": [],
      "isFixedGasLimit": false
    }
  ],
  "receipts": [
    {
      "status": "0x1",
      "cumulativeGasUsed": "0x137f2a2",
      "logs": [
        {
          "address": "0x291b55444c1d4b1d945ebbb2d1547171d8324d78",
          "topics": [
            "0x957f8e165512616cc1b935b3ba999a8a0870b6e18300af633ba488f7926bce2d"
          ],
          "data": "0x00000000000000000000000000000000000000000000000000000000000000000000000000000000000000000000000000000000000000000002ee5547f09000",
          "blockHash": "0xe66d177fb87f87f370c475abaed58730cd3fb6297b5e7a3e06cee54f5f0df0fc",
          "blockNumber": "0x1558cf4",
          "transactionHash": "0x0a93d750eafb377949e544a97ba98e368e270578fc80ad485da6da15c30a1758",
          "transactionIndex": "0xd2",
          "logIndex": "0x237",
          "removed": false
        }
      ],
      "logsBloom": "0x00000000000000000000000000000000000000000000000000000000000000000000000000000000000000000000000000000000000000000000000000000000400000000000000000000000000000000000000000000000000000000000000000080000000000000000000000000000000000000000000000000004000000000000000000000000000000000000000000000000000000000000000000000000000000000000000000000000000000000000000000000000000000000000000000000000000000000000000000000000000000000000000000000000000000200000000000000000000000000008000080000000000000000000000000000000",
      "type": "0x2",
      "transactionHash": "0x0a93d750eafb377949e544a97ba98e368e270578fc80ad485da6da15c30a1758",
      "transactionIndex": "0xd2",
      "blockHash": "0xe66d177fb87f87f370c475abaed58730cd3fb6297b5e7a3e06cee54f5f0df0fc",
      "blockNumber": "0x1558cf4",
      "gasUsed": "0xbf4e",
      "effectiveGasPrice": "0x1946103c",
      "from": "0x6ae493db8577b7387a335a81a1b562415d0ccb4b",
      "to": "0x291b55444c1d4b1d945ebbb2d1547171d8324d78",
      "contractAddress": null
    }
  ],
  "libraries": [],
  "pending": [],
  "returns": {},
  "timestamp": 1746040310,
  "chain": 1,
  "commit": "13b6176"
}